:020000040000FA
:1000000060020020650100007F010000C1110000B6
:1000100000000000000000000000000000000000E0
:10002000000000000000000000000000830100004C
:1000300000000000000000008501000087010000B2
:1000400057120000611200006B12000075120000D0
:1000500089010000890100007F1200008912000060
:10006000890100008901000093120000890100004D
:100070009D12000089010000A7120000B1120000CB
:10008000BB12000089010000C5120000CF12000061
:10009000D9120000E3120000ED12000089010000F7
:1000A000F712000089010000011300000B1300008B
:1000B00015130000890100001F1300002913000020
:1000C00000F002F800F03EF80CA030C80838241800
:1000D0002D18A246671EAB4654465D46AC4201D180
:1000E00000F030F87E460F3E0FCCB6460126334274
:1000F00000D0FB1AA246AB4633431847A8240000A1
:10010000C8240000103A02D378C878C1FAD8520740
:1001100001D330C830C101D504680C6070470000BD
:100120000023002400250026103A01D378C1FBD813
:10013000520700D330C100D50B6070471FB51FBDFB
:1001400010B510BD00F063F91146FFF7F7FF01F09D
:1001500051FF00F07BF903B4FFF7F2FF03BC01F09D
:10016000D7FE00000C480D4A002100A1814200D9B1
:1001700002440B4802600B4880470B480047FEE7EB
:10018000FEE7FEE7FEE7FEE7FEE700000748084956
:10019000064A084B704700000000002000000000E5
:1001A00008ED00E0CD130000C10000006001002058
:1001B0006002002060010020704700000EB5044678
:1001C00015460E4612A000F012F9204600F00FF975
:1001D00015A000F00CF9304600F009F914A000F069
:1001E00006F96C460020E0720A20A0720A3407E08B
:1001F0000A21284600F04AF830310546641E217075
:10020000002DF5DC204600F0F2F800F0E6F80000E2
:100210002A2A2A20617373657274696F6E20666181
:10022000696C65643A2000002C2066696C652000CA
:100230002C206C696E65200001E004C0091F0429B0
:10024000FBD28B0701D50280801CC90700D0027049
:10025000704700290BD0C30702D00270401C491E12
:10026000022904D3830702D50280801C891EE3E79C
:100270000022EEE70022DFE7002203098B422CD3A5
:10028000030A8B4211D300239C464EE003460B43E6
:100290003CD4002243088B4231D303098B421CD348
:1002A000030A8B4201D394463FE0C3098B4201D33A
:1002B000CB01C01A524183098B4201D38B01C01A72
:1002C000524143098B4201D34B01C01A52410309E9
:1002D0008B4201D30B01C01A5241C3088B4201D398
:1002E000CB00C01A524183088B4201D38B00C01A45
:1002F000524143088B4201D34B00C01A5241411A6C
:1003000000D201465241104670475DE0CA0F00D04E
:100310004942031000D34042534000229C46030947
:100320008B422DD3030A8B4212D3FC22890112BACD
:10033000030A8B420CD3890192118B4208D38901A5
:1003400092118B4204D389013AD0921100E08909BD
:10035000C3098B4201D3CB01C01A524183098B429E
:1003600001D38B01C01A524143098B4201D34B0187
:10037000C01A524103098B4201D30B01C01A5241EA
:10038000C3088B4201D3CB00C01A524183088B4271
:1003900001D38B00C01A5241D9D243088B4201D3FA
:1003A0004B00C01A5241411A00D2014663465241E5
:1003B0005B10104601D34042002B00D549427047E4
:1003C00063465B1000D3404201B50020C046C046E2
:1003D00002BD704770477047704710B5002000F0AD
:1003E00010F8FFF7ADFE012001F092FD10BD10B531
:1003F000044602E0641C01F08CFD20780028F9D14D
:1004000010BD10B500F030F800F028F810BD7546AA
:1004100000F042F8AE46050069465346C008C000E9
:10042000854618B020B5FFF7B1FE60BC002749082B
:10043000B6460026C0C5C0C5C0C5C0C5C0C5C0C57C
:10044000C0C5C0C5403D49008D46704710B5044643
:10045000C046C0462046FFF77EFE10BD10B50028FE
:1004600001D001F055FD10BD10B5002102A000F033
:1004700017F8012010BD0000534947414252543A39
:100480002041626E6F726D616C207465726D696E71
:100490006174696F6E00000000487047FC00002026
:1004A00070B505460C460A2000E06D1C01F031FDD8
:1004B000002D06D028780028F7D102E0641C01F056
:1004C00028FD002C02D020780028F7D10A2001F066
:1004D00020FD70BD10B51D4A1068401C10607D24C1
:1004E000E4001B490823A04202D18C681C438C60A5
:1004F0007D242401A04204D18868984388600020AC
:100500001060022000F04EF9012802D1022000F014
:1005100099F8104A01211078002808D0401EC0B276
:100520001070002803D10C4A1078084310700B4A51
:100530001078002808D0401EC0B21070002803D1E7
:10054000074802780A43027010BD00001400002022
:10055000000D02400C000020040000201B000020C1
:100560000500002010B586B0154C0121082000F0D0
:10057000FBFB01220321102000F074FD022000F09B
:10058000D9F8104805900020694608714871042286
:100590008A71C87108720120487201A9022000F016
:1005A00037F92146022000F00FF82146022000F022
:1005B00083F8022000F0EEF9002006B010BD000024
:1005C00017FC0000D504000010B50022002809D057
:1005D000012807D0022805D0FF22923210A1174827
:1005E000FFF7ECFD164B002806D001280AD00228A0
:1005F0000ED00122104610BD1868000C00040843FC
:100600001860F7E7186A000C000408431862F1E765
:100610000B48403003681B0C1B040B430360E9E7E5
:100620002E2E5C2E2E5C2E2E5C6472697665725CBA
:100630007372635C62742E630000000094240000F7
:10064000000C004010B50021002808D0012806D079
:10065000022804D08A220FA11548FFF7AFFD154AE2
:10066000002806D0012809D002280CD00121084614
:1006700010BD5069400840005061F8E7506B4008D9
:1006800040005063F3E70B48403042695208520083
:100690004261ECE72E2E5C2E2E5C2E2E5C6472697D
:1006A0007665725C7372635C62742E630000000096
:1006B00094240000000C004010B50022002809D04E
:1006C000012807D0022805D0FF22B53210A1174813
:1006D000FFF774FD164B002806D001280AD0022827
:1006E0000ED00122104610BD5868000C00040843CB
:1006F0005860F7E7586A000C000408435862F1E7B5
:100700000B48403043681B0C1B040B434360E9E774
:100710002E2E5C2E2E5C2E2E5C6472697665725CC9
:100720007372635C62742E63000000009424000006
:10073000000C004010B50021002808D0012806D088
:10074000022804D0AC220EA11448FFF737FD144B49
:100750001A15002806D0012808D002280AD0012145
:10076000084610BDD8681043D860F9E7D86A10432E
:10077000D862F5E70A484030C3681343C360EFE727
:100780002E2E5C2E2E5C2E2E5C6472697665725C59
:100790007372635C62742E63000000009424000096
:1007A000000C004010B501460020002908D00129A6
:1007B00006D0022904D068220CA11348FFF7FEFCE2
:1007C000124A002909D001290BD0022904D10F486F
:1007D00040300069C007C00F10BD1069C007C00FCE
:1007E00010BD106BC007C00F10BD00002E2E5C2E78
:1007F0002E5C2E2E5C6472697665725C7372635C2B
:1008000062742E630000000094240000000C00407D
:10081000F8B50023002809D0012807D0022805D008
:10082000FF22103251A15848FFF7C8FC574A022452
:10083000551596157027002806D0012834D00228B7
:1008400062D001231846F8BDD068A8430D78ED07A3
:10085000AD0D2843D060D0684D78B043ED07ED0D65
:100860002843D060D0688D78B8436D076D0E28435B
:10087000D060D0680825A843CD78ED072D0F284318
:10088000D060D0680425A8430D79ED076D0F28438B
:10089000D060D068A0434C79E407A40F2043D06017
:1008A0003B4889680160CDE7D06AA8430D78ED0721
:1008B000AD0D2843D062D06A4D78B043ED07ED0D01
:1008C0002843D062D06A8D78B8436D076D0E2843F7
:1008D000D062D06A0825A843CD78ED072D0F2843B4
:1008E000D062D06A0425A8430D79ED076D0F284327
:1008F000D062D06AA0434C79E407A40F2043D062B1
:100900002348C96841609DE720484030C268AA4337
:100910000D78ED07AD0D2A43C260C2684D78B24331
:10092000ED07ED0D2A43C260C2688D78BA436D07AA
:100930006D0E2A43C260C2680825AA43CD78ED0730
:100940002D0F2A43C260C2680425AA430D79ED0722
:100950006D0F2A43C260C268A2434C79E407A40F1A
:100960002243C2600A48096981606BE72E2E5C2E23
:100970002E5C2E2E5C6472697665725C7372635CA9
:1009800062742E630000000094240000000C0040FC
:100990002000002010B50021002809D0012807D030
:1009A000022805D0FF224D320EA11548FFF706FCA4
:1009B0000122144B002806D0012808D002280AD0B2
:1009C0000121084610BDD8681043D860F9E7D86AFD
:1009D0001043D862F5E70B484030C3681343C36047
:1009E000EFE700002E2E5C2E2E5C2E2E5C647269CA
:1009F0007665725C7372635C62742E630000000043
:100A000094240000000C004010B50020074B1C4649
:100A10000C34820099580902090A995042001219AF
:100A20005180401CC0B20328F3D310BD64000020E5
:100A3000002203E00378401C9A18D2B2491E4B1CD6
:100A4000F8D110467047C0B203E00B78491C181863
:100A5000C0B2521E531CF8D170470000034802492F
:100A600081600349816070475A5A000000200040AD
:100A7000A5A5000003480F220168D202914301603E
:100A80007047000000200040F8B505460E460024DF
:100A9000FFF7E4FF002E01D0012000E00020284AEB
:100AA000002D44D00426012D29D0022D20D0032D65
:100AB00004D0FFF7DFFF04242046F8BD2149CB68AE
:100AC0001025C007AB43C00F05012B43CB60CB689B
:100AD0002025AB4345012B43CB6091690F2319437C
:100AE0009161116808239943C00001431160E3E755
:100AF0001168C007B143400F01431160DCE7114B9F
:100B0000403BDD68C1070227C90FBD4348000543CC
:100B1000DD60DD688900B5430D43DD6011690F2399
:100B2000194311611168B94301431160C4E71168A9
:100B3000C00749084900C00F01431160BCE700002D
:100B400000200040400D0240014600200C4A0029D0
:100B500009D001290BD002290DD0032902D19069B7
:100B60004006C00F7047D0680005C00F704710697D
:100B70004006C00F70475069C004C00F70470000A6
:100B8000002000400CB5002016A10968019116490B
:100B900009680091154A11688906890F002906D055
:100BA000012915D002290AD0032915D112E0D068F5
:100BB00001A94005800F085C0D4948430CE05069CD
:100BC00069468005C00F4000085A6421484303E08D
:100BD000084801E00120C0031168C905490FC84059
:100BE0000CBD0000040810189024000000200040F4
:100BF00040420F000024F40000B5FFF7C3FF034993
:100C000009684905890FC84000BD00000020004068
:100C100010B50446002C10D06078802813D8A07836
:100C2000082816D8207800F085F9607800F056F88A
:100C3000A07800F07BF8002010BDFF22433208A10D
:100C40000EA0FFF7BBFAFF22443205A110A0FFF768
:100C5000B5FAFF22453202A117A0FFF7AFFA000054
:100C60002E2E5C2E2E5C2E2E5C6472697665725C74
:100C70007372635C636C6B2E63000000283020216C
:100C80003D2070737463436667293E203075000011
:100C900028707374634366672D3E656E48436C6BC2
:100CA000446976203C3D20436C6B44697631323890
:100CB000293E203075000000287073746343666716
:100CC0002D3E656E50436C6B446976203C3D20435D
:100CD0006C6B44697638293E2030750010B50446A7
:100CE000102C11D008DC012C0ED0022C0CD0042CBE
:100CF0000AD0082C06D107E0202C05D0402C03D0C8
:100D0000802C01D0042010BDFFF7A8FE204600F083
:100D100010FB054A1168FF23C13340079943C00DFA
:100D200001431160002010BD0020004010B50446B2
:100D3000012C07D0022C05D0042C03D0082C01D0A4
:100D4000042010BDFFF78AFE204600F0F2FA054AA3
:100D5000116803235B0280079943400D0143116032
:100D6000002010BD0020004010B5034600200029DF
:100D700001D0012200E000220121064C9940002A06
:100D800003D0226A0A43226210BD226A8A43226289
:100D900010BD00000020004010B504460020A41E35
:100DA0001D4A1E49230001F077F805040D161F287F
:100DB00031001289CB685205520DDB0ADB02134366
:100DC000CB6024E0D288CB685205520DDB0ADB02EF
:100DD0001343CB601BE09288CB685205520DDB0AAF
:100DE000DB021343CB6012E05288CB685205520DF0
:100DF000DB0ADB021343CB6009E01288CB685205A3
:100E0000520DDB0ADB021343CB6000E00420CA680A
:100E10001205FCD510BD0000000C100000200040A1
:100E200000210323114A9B02002808D001280AD080
:100E300002280FD0032814D00421084670475069B7
:100E400098435061F9E75069984301239B02C01809
:100E50005061F2E7506998430123DB02C0185061EA
:100E6000EBE7506918435061E7E7000000200040BD
:100E700070B504460025FFF7F1FD002C0AD0012CC7
:100E800008D0022C06D0032C04D0FFF7F3FD042574
:100E9000284670BD0449086830229043A207920E8C
:100EA00010430860F4E700000020004000210F4AD2
:100EB0003023032808D004280AD005280DD006289E
:100EC00010D0042108467047106998431061F9E773
:100ED0001069984310301061F4E71069984320308E
:100EE0001061EFE7106918431061EBE70020004044
:100EF00000210F4A3023032808D004280AD00528EF
:100F00000DD0062810D004210846704790699843F8
:100F10009061F9E79069984310309061F4E7906927
:100F2000984320309061EFE7906918439061EBE7B8
:100F30000020004070B505461A4800688006840FFE
:100F4000280012D0012805D0022807D0032809D094
:100F5000042070BD0620FFF7A9FF06E00320FFF77D
:100F60005FFF02E00520FFF7C3FF10480E49C16292
:100F70000F49C162016A042291430162012128469E
:100F8000FFF782FD2846FFF7DFFD0028FAD028464C
:100F9000FFF76EFF00212046FFF776FD00F00EFA06
:100FA000002070BD002000405A5A0000000002409E
:100FB000A5A50000002811D0214A116AD3021943C7
:100FC0001162017803239B06002909D0012915D05D
:100FD00002290CD0032915D0042070470420704743
:100FE000516B99430123DB06C91851630DE0516B26
:100FF000994301239B06C918516306E0516B1943BD
:10100000516302E0516B99435163516B01235B06BD
:1010100099434378DB079B091943516341680948A9
:10102000491E41610849CA691202120A43041A435F
:10103000CA61002181610121016100207047000027
:101040000020004000E000E004ED00E0002200216C
:10105000C30701D0521CD2B24008491C0829F7DB53
:101060001046704770B543B2C506ED0E0124AC4082
:10107000002B01DB174D2C608007C00EFF2585403B
:101080008907090E8140002B08DB9E081248B60034
:1010900030180668AE430E4306600AE01807000FDA
:1010A000083886080D48B6003018C669AE430E43AE
:1010B000C661012A08D0002B05DB09480460BFF394
:1010C0004F8FBFF36F8F70BD002BFCDB044880385F
:1010D000046070BD80E200E000E400E000ED00E0AC
:1010E00080E100E002488168491C8160704700008F
:1010F00008000020F0B504460F4616461D4623485A
:10110000016AC2031143016200223946204600F001
:1011100043F8A001BA001E4B00218218D2181160BA
:101120001C490124BC404018002E03D00168214313
:10113000016002E00168A14301600799002903D022
:10114000C1692143C16102E0C169A143C161002DB0
:1011500003D0016A2143016202E0016AA1430162F6
:101160000599002903D0416A2143416202E0416AA6
:10117000A14341620699002903D0C16A2143C1629B
:1011800002E0C16AA143C1620020F0BD002000401E
:10119000000C0240000D024010B50123074C8B40AB
:1011A00080010019002A03D0C1681943C16002E020
:1011B000C1689943C160002010BD0000000D0240CD
:1011C00008B50020009000980028FCD008BD000061
:1011D00002484168491C4160704700001800002027
:1011E0000A490A78002A0FD08A78531C8B70084B62
:1011F00092009A588B781B071B0F8B700B785B1E25
:101200000B7002700120704700207047180000200A
:10121000BC00002001480078704700001800002042
:1012200010B5012000F05EFC08494A78531C4B7051
:10123000074B9200985048780007000F48700878D4
:10124000401C08703220C87010BD0000180000203B
:10125000BC000020704710B50020C046C04610BD3D
:1012600010B50120C046C04610BD10B50220C046D2
:10127000C04610BD10B50320C046C04610BD10B515
:10128000002000F09BFB10BD10B5012000F096FB84
:1012900010BD10B50020C046C04610BD10B50020DE
:1012A000C046C04610BD10B5002000F0A9F810BD22
:1012B00010B5012000F0A4F810BD10B5022000F018
:1012C0009FF810BD10B50420C046C04610BD10B533
:1012D0000520C046C04610BD10B50620C046C04619
:1012E00010BD10B50020C046C04610BD10B500208E
:1012F000C046C04610BD10B50020C046C04610BD57
:1013000010B50020C046C04610BD10B50120C04633
:10131000C04610BD10B50020C046C04610BD10B577
:101320000020C046C04610BD10B50020C046C046D3
:1013300010BD0021002802D17047491C4008012837
:10134000FBD80846704700000A494A78002A0FD0A7
:10135000CA78531CCB70084B92009A58CB781B0765
:101360001B0FCB704B785B1E4B70027001207047D7
:1013700000207047080000207C00002001484078D1
:10138000704700000800002010B5002000F0AAFB04
:1013900008498A78531C8B70074B920098508878C4
:1013A0000007000F88704878401C48703220087190
:1013B00010BD0000080000207C00002010B5FFF7E1
:1013C000E1FB0149086010BD000000201CB50121AF
:1013D0000020FFF759FB0220FFF7DEFCFFF7EEFFCE
:1013E0000821684600F096FD0120694648700348D0
:1013F00001906846FFF7DEFD1CBD0000FFFFFF0007
:101400000649002805D0012805D0022805D18868A2
:1014100000470868004748680047704720000020E0
:1014200010B50D4908780A2807D20C4B82009A584B
:101430000B4B1A60401C087010BD00200870022180
:1014400000F0BEF80021084600F020F9012100203C
:1014500000F0DAF910BD0000080000207C00002038
:101460000001004010B5002807D0012805D009224E
:1014700092010DA113A0FEF7A1FE801D44B22046EB
:1014800000F018FD0321204600F020FD002C09DBB0
:10149000E106C90E0120884018490860BFF34F8F4C
:1014A000BFF36F8F10BD00002E2E5C2E2E5C2E2EF3
:1014B0005C6472697665725C7372635C7561727488
:1014C0002E63000028282855415254434830203DBF
:1014D0003D202875384964782929207C7C202855AE
:1014E000415254434831203D3D20287538496478A5
:1014F000292929293E2030750000000080E100E004
:1015000010B500240021084A14234B43D3588342CA
:1015100003D1142041438C1803E0491CC9B20229AD
:10152000F2D3204610BD00002C00002010B500288A
:1015300007D0012805D08B2292000BA111A0FEF745
:101540003DFE801D44B2204600F0B4FC032120463D
:1015500000F0BCFC002C05DBE106C90E0120884030
:101560001649086010BD00002E2E5C2E2E5C2E2E1B
:101570005C6472697665725C7372635C75617274C7
:101580002E63000028282855415254434830203DFE
:101590003D202875384964782929207C7C202855ED
:1015A000415254434831203D3D20287538496478E4
:1015B000292929293E2030750000000000E100E0C3
:1015C00010B50C46002807D0012805D0FF22B23202
:1015D00018A11FA0FEF7F2FD002C09D0012C07D0A6
:1015E000022C05D0FF22B33212A12748FEF7E6FDF8
:1015F000FFF786FF002807D0002C07D0012C0BD066
:10160000022C0FD0042010BD042010BD4068416999
:101610000422914341610AE0406841694908490058
:10162000416104E040684169022291434161002028
:1016300010BD00002E2E5C2E2E5C2E2E5C64726976
:101640007665725C7372635C756172742E63000000
:1016500028282855415254434830203D3D202875C4
:10166000384964782929207C7C20285541525443EC
:101670004831203D3D202875384964782929292999
:101680003E203075000000004025000010B50C46DB
:10169000002806D0012804D0AE2213A119A0FEF71D
:1016A0008DFD002C06D0012C04D0AF220EA123A06A
:1016B000FEF784FDFFF724FF002805D0002C05D09D
:1016C000012C09D0042010BD042010BD40684168E1
:1016D00002229143416004E04068416849084900A2
:1016E0004160002010BD00002E2E5C2E2E5C2E2EA0
:1016F0005C6472697665725C7372635C7561727446
:101700002E63000028282855415254434830203D7C
:101710003D202875384964782929207C7C2028556B
:10172000415254434831203D3D2028753849647862
:10173000292929293E203075000000002828285535
:101740006172745478497271203D3D2028656E495C
:10175000727153656C2929207C7C20285561727434
:101760005278497271203D3D2028656E497271534F
:10177000656C292929293E203075000010B50C46DA
:10178000002807D0012805D0FF22793209A110A036
:10179000FEF714FDFFF7B4FE002809D04068416849
:1017A00010229143E207D20E11434160002010BD88
:1017B000042010BD2E2E5C2E2E5C2E2E5C647269D1
:1017C0007665725C7372635C756172742E6300007F
:1017D00028282855415254434830203D3D20287543
:1017E000384964782929207C7C202855415254436B
:1017F0004831203D3D202875384964782929292918
:101800003E2030750000000010B50C46002806D0C0
:10181000012804D08C2213A119A0FEF7CFFC002CC4
:1018200006D0012C04D08D220EA123A0FEF7C6FC09
:10183000FFF766FE002805D0002C05D0012C09D04A
:10184000042010BD042010BD4068416802221143ED
:10185000416004E04068416801221143416000207A
:1018600010BD00002E2E5C2E2E5C2E2E5C64726944
:101870007665725C7372635C756172742E630000CE
:1018800028282855415254434830203D3D20287592
:10189000384964782929207C7C20285541525443BA
:1018A0004831203D3D202875384964782929292967
:1018B0003E203075000000002828285561727454BD
:1018C00078497271203D3D2028656E4972715365DB
:1018D0006C2929207C7C20285561727452784972C9
:1018E00071203D3D2028656E49727153656C292930
:1018F00029293E203075000070B50D4600240028CF
:1019000007D0012805D0FF228F3216A11CA0FEF7B8
:1019100055FC002D09D0012D07D0022D05D0FF2246
:10192000903210A12448FEF749FCFFF7E9FD00289A
:1019300006D0002D06D0012D09D0022D10D10BE0CC
:10194000042070BD406800694007C40F08E040688B
:101950000069C407E40F03E0406800698007C40F12
:10196000204670BD2E2E5C2E2E5C2E2E5C6472697D
:101970007665725C7372635C756172742E630000CD
:1019800028282855415254434830203D3D20287591
:10199000384964782929207C7C20285541525443B9
:1019A0004831203D3D202875384964782929292966
:1019B0003E203075000000004025000070B505464F
:1019C0002846FFF79DFD044620000BD060680169A2
:1019D000490708D500212846FFF7F2FDE0680028F6
:1019E00000D0804770BD0069C00707D0012128469C
:1019F000FFF7E6FD2069002800D080476068006995
:101A00008007EFD502212846FFF7DAFDA0680028FD
:101A1000E8D0804770BD000070B506460C46002E29
:101A200006D0012E04D0194A19A120A0FEF7C6FB4A
:101A30003046FFF765FD054628001ED0002C1ED05D
:101A40002178304600F082F96168002902D03046E2
:101A500000F0D0F9A068002807D04068E860A068CE
:101A600080682861A0680068A860207B012808D0F1
:101A70003046FFF7F7FC002070BD042070BD042045
:101A800070BD3046FFF752FDF5E70000550200003B
:101A90002E2E5C2E2E5C2E2E5C6472697665725C36
:101AA0007372635C756172742E6300002828285578
:101AB000415254434830203D3D20287538496478D0
:101AC0002929207C7C202855415254434831203D0F
:101AD0003D20287538496478292929293E20307508
:101AE0000000000010B5002807D0012805D0FF2213
:101AF000ED3207A10DA0FEF761FBFFF701FD002805
:101B000003D040680068C0B210BD042010BD0000C2
:101B10002E2E5C2E2E5C2E2E5C6472697665725CB5
:101B20007372635C756172742E63000028282855F7
:101B3000415254434830203D3D202875384964784F
:101B40002929207C7C202855415254434831203D8E
:101B50003D20287538496478292929293E20307587
:101B60000000000070B504460D46002C07D0012C83
:101B700005D0FF22D5320CA112A0FEF71FFB204694
:101B8000FFF7BEFC00280DD040680560022120460A
:101B9000FFF7B2FE0028F9D002212046FFF710FD22
:101BA000002070BD042070BD2E2E5C2E2E5C2E2ECB
:101BB0005C6472697665725C7372635C7561727481
:101BC0002E63000028282855415254434830203DB8
:101BD0003D202875384964782929207C7C202855A7
:101BE000415254434831203D3D202875384964789E
:101BF000292929293E2030750000000070B50E46C5
:101C000014460025002807D0012805D0FF225832AD
:101C100016A11DA0FEF7D2FAFFF772FC002815D01E
:101C2000002C13D04068416801225202914362782F
:101C3000D207920D114341602278002A13D0012A65
:101C400006D0022A0FD0032A0DD101E0002070BD7A
:101C5000606841016078401C7043FEF70DFB012174
:101C60000904081A85B2284670BD00002E2E5C2E8D
:101C70002E5C2E2E5C6472697665725C7372635C96
:101C8000756172742E630000282828554152544310
:101C90004830203D3D202875384964782929207C2A
:101CA0007C202855415254434831203D3D20287521
:101CB00038496478292929293E2030750000000020
:101CC00010B50C46002807D0012805D0FF220432A9
:101CD00009A110A0FEF772FAFFF712FC002809D044
:101CE0004068416808229143E207120F11434160A6
:101CF000002010BD042010BD2E2E5C2E2E5C2E2E3A
:101D00005C6472697665725C7372635C756172742F
:101D10002E63000028282855415254434830203D66
:101D20003D202875384964782929207C7C20285555
:101D3000415254434831203D3D202875384964784C
:101D4000292929293E2030750000000010B50C46D5
:101D5000002806D0012804D0D02210A116A0FEF73A
:101D60002DFA002C0AD0012C08D0022C06D0032C0E
:101D700004D0D12209A11E48FEF720FAFFF7C0FBCC
:101D8000002809D040684168C0229143A207120E82
:101D900011434160002010BD042010BD2E2E5C2E8A
:101DA0002E5C2E2E5C6472697665725C7372635C65
:101DB000756172742E6300002828285541525443DF
:101DC0004830203D3D202875384964782929207CF9
:101DD0007C202855415254434831203D3D202875F0
:101DE00038496478292929293E20307500000000EF
:101DF000D824000010B50C46002806D0012804D0D5
:101E0000E62210A116A0FEF7D9F9FFF779FB00280A
:101E10000ED0002C14D041684A6820239A432378BE
:101E2000DB079B0E1A434A602178012902D007E0A4
:101E3000042010BD4268617891604068A178C1605B
:101E4000002010BD2E2E5C2E2E5C2E2E5C6472693E
:101E50007665725C7372635C756172742E630000E8
:101E600028282855415254434830203D3D202875AC
:101E7000384964782929207C7C20285541525443D4
:101E80004831203D3D202875384964782929292981
:101E90003E2030750000000030B47446641E257882
:101EA000641CAB4200D21D46635D5B00E31830BC8E
:101EB00018470000002805DBC106C90E0120884034
:101EC000014908607047000080E200E08307FF22BC
:101ED000DB0E9A408907090E9940002808DB830829
:101EE00009489B001818036893430B43036070472D
:101EF0000007000F0838830804489B001818C369BE
:101F000093430B43C361704700E400E000ED00E041
:101F100070477047002806D0002201E00270401C84
:101F2000491E4B1CFAD17047F8B504460B480026F1
:101F300001270068084D3F06009009E0AE617D2151
:101F4000C9000098FEF798F9381AA9698142FCD8AF
:101F5000641E601CF2D1F8BD00E000E0000000202B
:101F600070B50024114D002028606860A860E8600A
:101F700005E02819FFF734F9641C2407240FFFF744
:101F800049F90028F5D100F0BDF80020295C682946
:101F900003D0401C80B21028F8D3281841780429B7
:101FA00002D10521FEF744FD002070BD5400002041
:101FB00070B505460E46002404E0295D0120FFF7B8
:101FC000D1FD641CB442F8D3204670BD10B5084C56
:101FD000682020708120607008212046FEF728FDCF
:101FE000C043401C207209212046FFF7E1FF10BDCD
:101FF0007000002008B53E48016AC2031143016227
:102000003C48C168C908C900C1603B49086808224A
:10201000904308600420FEF7BFFE00206946087068
:102020000120487088706846FEF7F2FD00F072F8F3
:10203000FEF798FA00F09CF9304E314C3225012120
:102040000020FFF7BDFA002232231146222000F0C3
:1020500005F935702078C007FCD02078C00707D07C
:1020600020784008400020700021222000F01EF956
:1020700001210020FFF7A4FA002232231146232079
:1020800000F0ECF835702078C007FCD02078C0074D
:1020900007D020784008400020700121232000F064
:1020A00005F901210020FFF78BFA002232231146A7
:1020B000242000F0D3F835702078C007FCD02078B9
:1020C000C00707D02078400840002070022124205B
:1020D00000F0ECF8FEF798FCFFF778FF6078C00797
:1020E000ADD06078400840006070FFF739FFA6E788
:1020F00000200040000C0240000D02400C000020B7
:102100000400002010B540210148FEF7B3F810BDCF
:10211000BC00002070B594B000240494102110A8D5
:10212000FFF7F8FE0C210DA8FFF7F4FE03210CA821
:10213000FFF7F0FE08210AA8FFF7ECFE142105A81E
:10214000FFF7E8FE0023009401941A4605210320BE
:102150000294FEF7CFFF0023009401941A46062153
:1021600003200294FEF7C6FF3748C168202291433E
:10217000C16036494B69DB08DB00DB1C4B6103683F
:1021800093430360036A13430362C26840239A4384
:10219000C2608A69D208D200D21C8A6101681943E0
:1021A000016001210820FEF7DFFD01210020FEF77C
:1021B000DBFD27480F9027480D9027480E900DA86B
:1021C0001290012510A805730326067008A8047450
:1021D00029460020FFF774FD0CA8119008A844724E
:1021E0004B2080010B9008A80672FEF705FD014602
:1021F0000AAA0020FFF702FD0646684645760476E7
:1022000005A90020FEF704FB31460020FEF7DCF9AB
:1022100031460020FEF750FA0020FEF7BBFB10A964
:102220000020FFF7F9FB01210020FFF7EDFA012163
:102230000020FFF7A3FA00F02FF8C820FFF774FE84
:10224000002014B070BD0000C00D0240C00C024060
:102250008913000021140000E510000070B5054648
:102260001446042C00DD042402210020FFF7A8F905
:102270002846FEF7EBFEC00709D001210020FFF73A
:102280001FFD29460020FFF76DFC204670BD002190
:102290000020FFF715FDF4E710B5012202A1EA20A6
:1022A00000F038F810BD0000FA000000F3B581B06E
:1022B0000F460024164D00262E606E60AE60EE6064
:1022C00005E02819FFF740F8641C2407240FFFF7E6
:1022D00055F80028F5D103220D490198FEF7B3FB0C
:1022E000C043C1B20A4AEB781032B8008B4208D121
:1022F000297809046B781B02C918AB78C9181150EA
:1023000000E016502E606E60AE60EE600020FEBDF4
:102310005400002070B588B0802318436B461870B5
:1023200000236D4605E0CC5CEE1874702018C0B236
:102330005B1C9342F7DBC043A91848700024961C2D
:102340000DE0285DFEF782FEC0070CD001210020C1
:10235000FFF7B6FC295D0020FFF704FC641CB442C3
:10236000EFDB08B070BD00210020FFF7A9FCF1E70A
:1023700070B592B010210EA8FFF7CCFD0C210BA870
:10238000FFF7C8FD082109A8FFF7C4FD142104A820
:10239000FFF7C0FD00240094019423462246022149
:1023A00003200294FEF7A6FE00230321009401946B
:1023B0001A4608460294FEF79DFE3048C168042282
:1023C0009143C1602E498B68DB08DB005B1D8B608D
:1023D000036893430360C26808239A43C260CA68D3
:1023E000D208D200521DCA60016819430160012160
:1023F0000820FEF7B9FC01210846FEF7B5FC21488C
:102400000D9021480B9021480C900BA810900125AD
:1024100010A8057108A8057644714B20C0010A90E8
:1024200008A80571FEF7E8FB014609AA0120FFF79D
:10243000E5FB064668464575047504A90120FEF7CC
:10244000E7F931460120FEF7BFF831460120FEF7DB
:1024500033F90120FEF79EFA0EA90120FFF7DCFAFE
:1024600001210846FFF7D0F901210846FFF786F958
:1024700000210120FFF70AF912B070BDC00D024023
:10248000C00C02402112000055120000D1110000C2
:1024900048018001282854494D30203D3D202865C1
:1024A0006E556E697429207C7C2054494D31203D45
:1024B0003D2028656E556E697429207C7C20544926
:1024C0004D32203D3D2028656E556E6974292929BD
:1024D0003E20307500000000282828556172744D98
:1024E0006F6465303D3D28656E4D6F646529297CBC
:1024F0007C2028556172744D6F6465313D3D2865BF
:102500006E4D6F646529297C7C2028556172744D5D
:102510006F6465323D3D28656E4D6F646529297C89
:102520007C2028556172744D6F6465333D3D28658C
:102530006E4D6F6465292929293E20307500000001
:1025400028282855617274524652414D4545727291
:102550006F72203D3D2028656E5374617475732938
:10256000297C7C202855617274527846756C6C20E9
:102570003D3D2028656E53746174757329297C7CF8
:102580002028556172745478456D707479203D3DF2
:102590002028656E537461747573292929293E209A
:1025A00030750000C4250000000000205400000029
:1025B0000401000018260000540000200C02000056
:1025C0002001000000093D000000000000000000A4
:1025D00000000000000000000000000000000000FB
:1025E00000000000000000000000000000000000EB
:1025F000000000000000004000000000000000009B
:102600000000000001000000000100400000000088
:082610000000000000000000C2
:04000005000000C136
:00000001FF
